{
  "contractName": "ExpenseTracker",
  "abi": [
    {
      "inputs": [
        {
          "internalType": "string",
          "name": "text",
          "type": "string"
        },
        {
          "internalType": "int256",
          "name": "val",
          "type": "int256"
        }
      ],
      "name": "addTransaction",
      "outputs": [
        {
          "internalType": "bool",
          "name": "",
          "type": "bool"
        }
      ],
      "stateMutability": "nonpayable",
      "type": "function"
    },
    {
      "inputs": [
        {
          "internalType": "address",
          "name": "user",
          "type": "address"
        }
      ],
      "name": "getBalance",
      "outputs": [
        {
          "internalType": "int256",
          "name": "",
          "type": "int256"
        }
      ],
      "stateMutability": "view",
      "type": "function",
      "constant": true
    },
    {
      "inputs": [
        {
          "internalType": "address",
          "name": "user",
          "type": "address"
        }
      ],
      "name": "getTransactions",
      "outputs": [
        {
          "components": [
            {
              "internalType": "string",
              "name": "text",
              "type": "string"
            },
            {
              "internalType": "int256",
              "name": "amount",
              "type": "int256"
            }
          ],
          "internalType": "struct ExpenseTracker.transaction[]",
          "name": "",
          "type": "tuple[]"
        }
      ],
      "stateMutability": "view",
      "type": "function",
      "constant": true
    }
  ],
  "bytecode": "0x608060405234801561001057600080fd5b5061099d806100206000396000f3fe608060405234801561001057600080fd5b50600436106100415760003560e01c80630f8cda2014610046578063b9d9b3f514610076578063f8b2cb4f146100a6575b600080fd5b610060600480360381019061005b9190610494565b6100d6565b60405161006d919061063d565b60405180910390f35b610090600480360381019061008b91906104bd565b61020f565b60405161009d919061065f565b60405180910390f35b6100c060048036038101906100bb9190610494565b610316565b6040516100cd919061067a565b60405180910390f35b60606000808373ffffffffffffffffffffffffffffffffffffffff1673ffffffffffffffffffffffffffffffffffffffff168152602001908152602001600020805480602002602001604051908101604052809291908181526020016000905b82821015610204578382906000526020600020906002020160405180604001604052908160008201805461016990610869565b80601f016020809104026020016040519081016040528092919081815260200182805461019590610869565b80156101e25780601f106101b7576101008083540402835291602001916101e2565b820191906000526020600020905b8154815290600101906020018083116101c557829003601f168201915b5050505050815260200160018201548152505081526020019060010190610136565b505050509050919050565b60008060003373ffffffffffffffffffffffffffffffffffffffff1673ffffffffffffffffffffffffffffffffffffffff168152602001908152602001600020604051806040016040528085815260200184815250908060018154018082558091505060019003906000526020600020906002020160009091909190915060008201518160000190805190602001906102a992919061035f565b5060208201518160010155505081600160003373ffffffffffffffffffffffffffffffffffffffff1673ffffffffffffffffffffffffffffffffffffffff1681526020019081526020016000206000828254610305919061074b565b925050819055506001905092915050565b6000600160008373ffffffffffffffffffffffffffffffffffffffff1673ffffffffffffffffffffffffffffffffffffffff168152602001908152602001600020549050919050565b82805461036b90610869565b90600052602060002090601f01602090048101928261038d57600085556103d4565b82601f106103a657805160ff19168380011785556103d4565b828001600101855582156103d4579182015b828111156103d35782518255916020019190600101906103b8565b5b5090506103e191906103e5565b5090565b5b808211156103fe5760008160009055506001016103e6565b5090565b6000610415610410846106c6565b610695565b90508281526020810184848401111561042d57600080fd5b610438848285610827565b509392505050565b60008135905061044f81610939565b92915050565b60008135905061046481610950565b92915050565b600082601f83011261047b57600080fd5b813561048b848260208601610402565b91505092915050565b6000602082840312156104a657600080fd5b60006104b484828501610440565b91505092915050565b600080604083850312156104d057600080fd5b600083013567ffffffffffffffff8111156104ea57600080fd5b6104f68582860161046a565b925050602061050785828601610455565b9150509250929050565b600061051d8383610600565b905092915050565b600061053082610706565b61053a8185610729565b93508360208202850161054c856106f6565b8060005b8581101561058857848403895281516105698582610511565b94506105748361071c565b925060208a01995050600181019050610550565b50829750879550505050505092915050565b6105a3816107f1565b82525050565b6105b2816107fd565b82525050565b6105c1816107fd565b82525050565b60006105d282610711565b6105dc818561073a565b93506105ec818560208601610836565b6105f581610928565b840191505092915050565b6000604083016000830151848203600086015261061d82826105c7565b915050602083015161063260208601826105a9565b508091505092915050565b600060208201905081810360008301526106578184610525565b905092915050565b6000602082019050610674600083018461059a565b92915050565b600060208201905061068f60008301846105b8565b92915050565b6000604051905081810181811067ffffffffffffffff821117156106bc576106bb6108f9565b5b8060405250919050565b600067ffffffffffffffff8211156106e1576106e06108f9565b5b601f19601f8301169050602081019050919050565b6000819050602082019050919050565b600081519050919050565b600081519050919050565b6000602082019050919050565b600082825260208201905092915050565b600082825260208201905092915050565b6000610756826107fd565b9150610761836107fd565b9250817f7fffffffffffffffffffffffffffffffffffffffffffffffffffffffffffffff0383136000831215161561079c5761079b61089b565b5b817f80000000000000000000000000000000000000000000000000000000000000000383126000831216156107d4576107d361089b565b5b828201905092915050565b60006107ea82610807565b9050919050565b60008115159050919050565b6000819050919050565b600073ffffffffffffffffffffffffffffffffffffffff82169050919050565b82818337600083830152505050565b60005b83811015610854578082015181840152602081019050610839565b83811115610863576000848401525b50505050565b6000600282049050600182168061088157607f821691505b60208210811415610895576108946108ca565b5b50919050565b7f4e487b7100000000000000000000000000000000000000000000000000000000600052601160045260246000fd5b7f4e487b7100000000000000000000000000000000000000000000000000000000600052602260045260246000fd5b7f4e487b7100000000000000000000000000000000000000000000000000000000600052604160045260246000fd5b6000601f19601f8301169050919050565b610942816107df565b811461094d57600080fd5b50565b610959816107fd565b811461096457600080fd5b5056fea26469706673582212205731fbe2e5f81100acf7a97996ebdb5f759e4cb5fc13aa103cfd3de5520eb68064736f6c63430008000033",
  "immutableReferences": {},
  "source": "// SPDX-License-Identifier: MIT\r\npragma solidity >=0.4.22 <0.9.0;\r\n\r\ncontract ExpenseTracker {\r\n    \r\n    struct transaction{\r\n        string text;\r\n        int256 amount;\r\n    }\r\n    \r\n    mapping(address => transaction[]) private transactionMap;\r\n    mapping(address => int256) private userBalance;\r\n    \r\n\r\n    \r\n    function addTransaction (string memory text, int256 val) public returns(bool){\r\n        transactionMap[msg.sender].push(transaction(text, val));\r\n        userBalance[msg.sender] += val ;\r\n        return true;\r\n    }\r\n    \r\n    function getBalance(address user) public view returns(int256){\r\n        return userBalance[user];\r\n    }\r\n    \r\n    function getTransactions(address user) public view returns(transaction[] memory){\r\n        return transactionMap[user];\r\n    }\r\n}",
  "sourcePath": "D:/My Documents New/DL ML BC CC/BCC Q3/Assignment/Expense Tracker/Exp_Track_HTML_CSS_Web3/contracts/ExpenseTracker.sol",
  "compiler": {
    "name": "solc",
    "version": "0.8.0+commit.c7dfd78e.Emscripten.clang"
  },
  "schemaVersion": "3.4.0",
  "updatedAt": "2021-10-28T20:11:22.293Z",
  "networkType": "ethereum",
  "devdoc": {
    "kind": "dev",
    "methods": {},
    "version": 1
  },
  "userdoc": {
    "kind": "user",
    "methods": {},
    "version": 1
  }
}